{
  "contractName": "TruthApp",
  "abi": [
    {
      "constant": false,
      "inputs": [
        {
          "name": "_title",
          "type": "string"
        },
        {
          "name": "_summary",
          "type": "string"
        },
        {
          "name": "_category",
          "type": "string"
        },
        {
          "name": "_publisher",
          "type": "address"
        },
        {
          "name": "_rating",
          "type": "int256"
        },
        {
          "name": "_imageHash",
          "type": "string"
        }
      ],
      "name": "addNews",
      "outputs": [],
      "payable": false,
      "stateMutability": "nonpayable",
      "type": "function"
    },
    {
      "constant": true,
      "inputs": [
        {
          "name": "_category",
          "type": "string"
        },
        {
          "name": "_index",
          "type": "uint256"
        }
      ],
      "name": "getNews",
      "outputs": [
        {
          "name": "title",
          "type": "string"
        },
        {
          "name": "summary",
          "type": "string"
        },
        {
          "name": "publisher",
          "type": "address"
        },
        {
          "name": "rating",
          "type": "int256"
        }
      ],
      "payable": false,
      "stateMutability": "view",
      "type": "function"
    },
    {
      "constant": true,
      "inputs": [
        {
          "name": "_category",
          "type": "string"
        },
        {
          "name": "_index",
          "type": "uint256"
        }
      ],
      "name": "getNewsImageHash",
      "outputs": [
        {
          "name": "imageHash",
          "type": "string"
        }
      ],
      "payable": false,
      "stateMutability": "view",
      "type": "function"
    },
    {
      "constant": false,
      "inputs": [
        {
          "name": "_category",
          "type": "string"
        },
        {
          "name": "_index",
          "type": "uint256"
        }
      ],
      "name": "ratePlus",
      "outputs": [],
      "payable": false,
      "stateMutability": "nonpayable",
      "type": "function"
    },
    {
      "constant": false,
      "inputs": [
        {
          "name": "_category",
          "type": "string"
        },
        {
          "name": "_index",
          "type": "uint256"
        }
      ],
      "name": "rateMinus",
      "outputs": [],
      "payable": false,
      "stateMutability": "nonpayable",
      "type": "function"
    },
    {
      "constant": true,
      "inputs": [
        {
          "name": "_index",
          "type": "uint256"
        }
      ],
      "name": "getCategoryName",
      "outputs": [
        {
          "name": "title",
          "type": "string"
        }
      ],
      "payable": false,
      "stateMutability": "view",
      "type": "function"
    },
    {
      "constant": true,
      "inputs": [],
      "name": "getNumberOfCategories",
      "outputs": [
        {
          "name": "count",
          "type": "uint256"
        }
      ],
      "payable": false,
      "stateMutability": "view",
      "type": "function"
    },
    {
      "constant": true,
      "inputs": [
        {
          "name": "_category",
          "type": "string"
        }
      ],
      "name": "getNumberOfNewsInType",
      "outputs": [
        {
          "name": "count",
          "type": "uint256"
        }
      ],
      "payable": false,
      "stateMutability": "view",
      "type": "function"
    }
  ],
  "bytecode": "0x608060405234801561001057600080fd5b5061139f806100206000396000f30060806040526004361061008e576000357c0100000000000000000000000000000000000000000000000000000000900463ffffffff16806305f4e7ed1461009357806329aad437146102255780638ad41175146102a2578063abc2be961461038e578063d1656c17146104f3578063d26137c814610599578063f0159915146105c4578063f189556414610637575b600080fd5b34801561009f57600080fd5b50610104600480360381019080803590602001908201803590602001908080601f0160208091040260200160405190810160405280939291908181526020018383808284378201915050505050509192919290803590602001909291905050506106aa565b6040518080602001806020018573ffffffffffffffffffffffffffffffffffffffff1673ffffffffffffffffffffffffffffffffffffffff168152602001848152602001838103835287818151815260200191508051906020019080838360005b83811015610180578082015181840152602081019050610165565b50505050905090810190601f1680156101ad5780820380516001836020036101000a031916815260200191505b50838103825286818151815260200191508051906020019080838360005b838110156101e65780820151818401526020810190506101cb565b50505050905090810190601f1680156102135780820380516001836020036101000a031916815260200191505b50965050505050505060405180910390f35b34801561023157600080fd5b5061028c600480360381019080803590602001908201803590602001908080601f0160208091040260200160405190810160405280939291908181526020018383808284378201915050505050509192919290505050610abf565b6040518082815260200191505060405180910390f35b3480156102ae57600080fd5b50610313600480360381019080803590602001908201803590602001908080601f016020809104026020016040519081016040528093929190818152602001838380828437820191505050505050919291929080359060200190929190505050610b36565b6040518080602001828103825283818151815260200191508051906020019080838360005b83811015610353578082015181840152602081019050610338565b50505050905090810190601f1680156103805780820380516001836020036101000a031916815260200191505b509250505060405180910390f35b34801561039a57600080fd5b506104f1600480360381019080803590602001908201803590602001908080601f0160208091040260200160405190810160405280939291908181526020018383808284378201915050505050509192919290803590602001908201803590602001908080601f0160208091040260200160405190810160405280939291908181526020018383808284378201915050505050509192919290803590602001908201803590602001908080601f0160208091040260200160405190810160405280939291908181526020018383808284378201915050505050509192919290803573ffffffffffffffffffffffffffffffffffffffff16906020019092919080359060200190929190803590602001908201803590602001908080601f0160208091040260200160405190810160405280939291908181526020018383808284378201915050505050509192919290505050610c62565b005b3480156104ff57600080fd5b5061051e60048036038101908080359060200190929190505050610eee565b6040518080602001828103825283818151815260200191508051906020019080838360005b8381101561055e578082015181840152602081019050610543565b50505050905090810190601f16801561058b5780820380516001836020036101000a031916815260200191505b509250505060405180910390f35b3480156105a557600080fd5b506105ae610fbc565b6040518082815260200191505060405180910390f35b3480156105d057600080fd5b50610635600480360381019080803590602001908201803590602001908080601f016020809104026020016040519081016040528093929190818152602001838380828437820191505050505050919291929080359060200190929190505050610fc9565b005b34801561064357600080fd5b506106a8600480360381019080803590602001908201803590602001908080601f0160208091040260200160405190810160405280939291908181526020018383808284378201915050505050509192919290803590602001909291905050506110e5565b005b6060806000808585600080836040518082805190602001908083835b6020831015156106eb57805182526020820191506020810190506020830392506106c6565b6001836020036101000a03801982511681845116808217855250505050505090500191505090815260200160405180910390208054905011151561072e57600080fd5b6000886040518082805190602001908083835b6020831015156107665780518252602082019150602081019050602083039250610741565b6001836020036101000a0380198251168184511680821785525050505050509050019150509081526020016040518091039020878154811015156107a657fe5b90600052602060002090600602016000016000896040518082805190602001908083835b6020831015156107ef57805182526020820191506020810190506020830392506107ca565b6001836020036101000a03801982511681845116808217855250505050505090500191505090815260200160405180910390208881548110151561082f57fe5b906000526020600020906006020160010160008a6040518082805190602001908083835b6020831015156108785780518252602082019150602081019050602083039250610853565b6001836020036101000a0380198251168184511680821785525050505050509050019150509081526020016040518091039020898154811015156108b857fe5b906000526020600020906006020160030160009054906101000a900473ffffffffffffffffffffffffffffffffffffffff1660008b6040518082805190602001908083835b60208310151561092257805182526020820191506020810190506020830392506108fd565b6001836020036101000a03801982511681845116808217855250505050505090500191505090815260200160405180910390208a81548110151561096257fe5b906000526020600020906006020160040154838054600181600116156101000203166002900480601f016020809104026020016040519081016040528092919081815260200182805460018160011615610100020316600290048015610a095780601f106109de57610100808354040283529160200191610a09565b820191906000526020600020905b8154815290600101906020018083116109ec57829003601f168201915b50505050509350828054600181600116156101000203166002900480601f016020809104026020016040519081016040528092919081815260200182805460018160011615610100020316600290048015610aa55780601f10610a7a57610100808354040283529160200191610aa5565b820191906000526020600020905b815481529060010190602001808311610a8857829003601f168201915b505050505092509550955095509550505092959194509250565b600080826040518082805190602001908083835b602083101515610af85780518252602082019150602081019050602083039250610ad3565b6001836020036101000a0380198251168184511680821785525050505050509050019150509081526020016040518091039020805490509050919050565b60606000836040518082805190602001908083835b602083101515610b705780518252602082019150602081019050602083039250610b4b565b6001836020036101000a038019825116818451168082178552505050505050905001915050908152602001604051809103902082815481101515610bb057fe5b90600052602060002090600602016005018054600181600116156101000203166002900480601f016020809104026020016040519081016040528092919081815260200182805460018160011615610100020316600290048015610c555780601f10610c2a57610100808354040283529160200191610c55565b820191906000526020600020905b815481529060010190602001808311610c3857829003601f168201915b5050505050905092915050565b610c6a611201565b86816000018190525085816020018190525084816040018190525083816060019073ffffffffffffffffffffffffffffffffffffffff16908173ffffffffffffffffffffffffffffffffffffffff168152505082816080018181525050818160a00181905250600080866040518082805190602001908083835b602083101515610d095780518252602082019150602081019050602083039250610ce4565b6001836020036101000a0380198251168184511680821785525050505050509050019150509081526020016040518091039020805490501415610d86576001859080600181540180825580915050906001820390600052602060002001600090919290919091509080519060200190610d8392919061124e565b50505b6000856040518082805190602001908083835b602083101515610dbe5780518252602082019150602081019050602083039250610d99565b6001836020036101000a038019825116818451168082178552505050505050905001915050908152602001604051809103902081908060018154018082558091505090600182039060005260206000209060060201600090919290919091506000820151816000019080519060200190610e399291906112ce565b506020820151816001019080519060200190610e569291906112ce565b506040820151816002019080519060200190610e739291906112ce565b5060608201518160030160006101000a81548173ffffffffffffffffffffffffffffffffffffffff021916908373ffffffffffffffffffffffffffffffffffffffff1602179055506080820151816004015560a0820151816005019080519060200190610ee19291906112ce565b5050505050505050505050565b606060018054905082101515610f0357600080fd5b600182815481101515610f1257fe5b906000526020600020018054600181600116156101000203166002900480601f016020809104026020016040519081016040528092919081815260200182805460018160011615610100020316600290048015610fb05780601f10610f8557610100808354040283529160200191610fb0565b820191906000526020600020905b815481529060010190602001808311610f9357829003601f168201915b50505050509050919050565b6000600180549050905090565b8181600080836040518082805190602001908083835b6020831015156110045780518252602082019150602081019050602083039250610fdf565b6001836020036101000a03801982511681845116808217855250505050505090500191505090815260200160405180910390208054905011151561104757600080fd5b60016000856040518082805190602001908083835b602083101515611081578051825260208201915060208101905060208303925061105c565b6001836020036101000a0380198251168184511680821785525050505050509050019150509081526020016040518091039020848154811015156110c157fe5b90600052602060002090600602016004016000828254019250508190555050505050565b8181600080836040518082805190602001908083835b60208310151561112057805182526020820191506020810190506020830392506110fb565b6001836020036101000a03801982511681845116808217855250505050505090500191505090815260200160405180910390208054905011151561116357600080fd5b60016000856040518082805190602001908083835b60208310151561119d5780518252602082019150602081019050602083039250611178565b6001836020036101000a0380198251168184511680821785525050505050509050019150509081526020016040518091039020848154811015156111dd57fe5b90600052602060002090600602016004016000828254019250508190555050505050565b60c060405190810160405280606081526020016060815260200160608152602001600073ffffffffffffffffffffffffffffffffffffffff16815260200160008152602001606081525090565b828054600181600116156101000203166002900490600052602060002090601f016020900481019282601f1061128f57805160ff19168380011785556112bd565b828001600101855582156112bd579182015b828111156112bc5782518255916020019190600101906112a1565b5b5090506112ca919061134e565b5090565b828054600181600116156101000203166002900490600052602060002090601f016020900481019282601f1061130f57805160ff191683800117855561133d565b8280016001018555821561133d579182015b8281111561133c578251825591602001919060010190611321565b5b50905061134a919061134e565b5090565b61137091905b8082111561136c576000816000905550600101611354565b5090565b905600a165627a7a7230582032f7f373c123e7ee6408089ed1345c79f4d671fc48448d108023129c974ee4ce0029",
  "source": "pragma solidity ^0.4.18;\r\n\r\ncontract TruthApp {\r\n    \r\n    struct news{\r\n        string title;\r\n        string summary;\r\n        string category;\r\n        address publisher;\r\n        int rating;\r\n        string imageHash;\r\n    }\r\n    \r\n    mapping (string => news[]) newsAll;\r\n    \r\n    string [] private categories;\r\n    \r\n    address private owner;\r\n    \r\n    modifier newsExists(string _category, uint _index) {\r\n        require(newsAll[_category].length > 0);\r\n        _;\r\n    }\r\n\r\n    modifier onlyOwner(){\r\n        require(owner == msg.sender);\r\n        _;\r\n    }\r\n\r\n    function addNews(string _title, string _summary, string _category, address _publisher, int _rating, string _imageHash) public {\r\n        news memory currentNews;\r\n        currentNews.title = _title;\r\n        currentNews.summary = _summary;\r\n        currentNews.category = _category;\r\n        currentNews.publisher = _publisher;\r\n        currentNews.rating = _rating;\r\n        currentNews.imageHash = _imageHash;\r\n\r\n        if(newsAll[_category].length == 0) {\r\n            categories.push(_category);\r\n        }\r\n\r\n        newsAll[_category].push(currentNews);\r\n    }\r\n    \r\n    function getNews(string _category, uint _index) view public newsExists(_category, _index)\r\n    returns (string title, string summary, address publisher, int rating) {\r\n        return(\r\n        newsAll[_category][_index].title,\r\n        newsAll[_category][_index].summary,\r\n        newsAll[_category][_index].publisher,\r\n        newsAll[_category][_index].rating\r\n        );\r\n    }\r\n    \r\n    function getNewsImageHash(string _category, uint _index) view public \r\n    returns (string imageHash)\r\n    {\r\n        return newsAll[_category][_index].imageHash;\r\n    }        \r\n    \r\n    function ratePlus(string _category, uint _index) public newsExists(_category, _index) {\r\n        newsAll[_category][_index].rating += 1; \r\n    }\r\n    \r\n    function rateMinus(string _category, uint _index) public newsExists(_category, _index) {\r\n        newsAll[_category][_index].rating += 1; \r\n    }\r\n    \r\n    function getCategoryName(uint _index) view public returns (string title) {\r\n        require(_index < categories.length);\r\n        return categories[_index];\r\n    }\r\n    \r\n    function getNumberOfCategories() public view returns (uint count) {\r\n        return categories.length;\r\n    }\r\n    \r\n    function getNumberOfNewsInType(string _category) view public returns (uint count) {\r\n        return newsAll[_category].length;\r\n    }\r\n}",
  "sourcePath": "C:\\Users\\Георги Караманев\\Documents\\_programirane\\06_JS web\\___project\\test\\truffle\\contracts\\NewsString.sol",
  "compiler": {
    "name": "solc",
    "version": "0.4.24+commit.e67f0147.Emscripten.clang"
  },
  "schemaVersion": "2.0.1",
  "updatedAt": "2018-07-12T19:32:53.286Z"
}